:100000000C9456050C949D050C949D050C949D052F
:100010000C949D050C949D050C949D050C949D05D8
:100020000C949D050C949D050C949D050C94EE2359
:100030000C949F240C94681B0C949D050C949D05B6
:100040000C949D050C949D050C949D050C94DA1B55
:100050000C949D050C949D050C949D050C949D0598
:100060000C949D050C949D050C949D050C949D0588
:100070000C949D0568747470733A2F2F716D6B2EFC
:10008000666D2F012800514D4B20697320746865FF
:100090002062657374207468696E67206576657286
:1000A00021002B0034003600370013001C0009002B
:1000B0000A00060015000F0038002E002A00E0009C
:1000C00004001200080018000C0007000B001700C5
:1000D000110016002D0028000000E100330014007C
:1000E0000D000E001B000000050010001A00190092
:1000F0001D00E500000029000000E200E3002C41A3
:10010000000000002C00E700E6004B0052004E000B
:100110000000000000000408060819083B00430026
:1001200042004000210A500051004F0000003502FB
:100130001E021F02200221022202230224022502A3
:10014000260227022F003000010001001E001F00C0
:100150002000210022002300240025002600270083
:1001600031000100000001003B003C003D003E006A
:100170003F000000400041004200430044000100F5
:10018000000001000100010001000100000000006A
:1001900001000100010001006A00010000000100EF
:1001A0000100010001000100010001000100010047
:1001B0000100810069008000000044454255473A33
:1001C0002064697361626C65642E0A00444542557F
:1001D000473A20656E61626C65642E0A000000007B
:1001E00000000000002A2B28000000000000000092
:1001F000000000000000000029000000002C1E3458
:1002000020212224342627252E362D3738271E1F5D
:10021000202122232425263333362E37381F040588
:10022000060708090A0B0C0D0E0F101112131415F6
:10023000161718191A1B1C1D2F3130232D350405D4
:10024000060708090A0B0C0D0E0F101112131415D6
:10025000161718191A1B1C1D2F3130354C000000C1
:10026000000000000000000000000000000000008E
:10027000000000000000000000000000000000007E
:10028000000000000000000000000000000000006E
:10029000000000000000000000000000000000005E
:1002A000000000000000000000000000000000004E
:1002B000000000000000000000000000000000003E
:1002C000000000000000000000000000000000002E
:1002D000000000000000000000000000000000001E
:1002E000000000000000000000000000000000000E
:1002F00000000000000000000000000000000101FC
:1003000001010101000101010100000000000000E5
:1003100000000000000000010001000101010101D6
:1003200001010101010101010101010101010101BD
:1003300001010101010101010000000101000000B3
:1003400000000000000000000000000000000000AD
:10035000000000000000000001010101000A00256A
:1003600030313662003A200025303258000A722FB0
:1003700063203031323334353637383941424344E3
:1003800045460A000A002530325820006B65796224
:100390006F6172645F7265706F72743A20000A0058
:1003A00025303258006B6579626F6172645F7365E6
:1003B000745F6C65643A20003F00433E20004C258A
:1003C000640A0074696D65725F7265616433322816
:1003D000293A202530346C580A006B6579626F61C8
:1003E00072645F69646C653A2025580A006B657910
:1003F000626F6172645F70726F746F636F6C3A20CA
:1004000025580A00686F73745F6B6579626F61725B
:10041000645F6C65647328293A2025580A000A092C
:100420002D20537461747573202D0A004743433A9D
:1004300020382E332E30204156522D4C4942433A1B
:1004400020322E302E30204156525F415243483ADE
:100450002061767233350A004F5054494F4E533A5B
:10046000204C5546412045585452414B4559204354
:100470004F4E534F4C4520434F4D4D414E44203439
:100480003039360A004255494C443A2022302E3742
:100490002E34322D312D676636366232622D646914
:1004A00072747922202832333A34313A323320467A
:1004B00065622031342032303230290A00564944F6
:1004C0003A2030784645454428742D6D6979616A33
:1004D000696D6129205049443A20307830303031FC
:1004E00028446F6D627269636B363044292056452B
:1004F000523A203078303030310A00444553433A84
:100500002044766F72616B204F7269656E7465640A
:10051000204D656368616E6963616C20427265613C
:100520006B74686F7567682052656D616B61626C92
:100530006520496E746572657374696E6720436FD8
:100540006F6C657374204B6579626F6172642064AF
:10055000656469636174656420746F2044656C6CC4
:100560000A000A092D2056657273696F6E202D0AE4
:10057000000A092D20436F6E736F6C65202D0A45AC
:1005800053432F713A09717569740A000A092D20C5
:100590004D61676963202D0A443A094465627567B5
:1005A000204D65737361676520546F67676C650ADA
:1005B000583A094D61747269782044656275672004
:1005C0004D6F646520546F67676C65202D205368FC
:1005D0006F77206B65797072657373657320696ED0
:1005E000206D617472697820677269640A4B3A09F8
:1005F0004B6579626F61726420446562756720544F
:100600006F67676C65202D2053686F77206B657965
:100610007072657373207265706F72740A4D3A0957
:100620004465627567204D6F75736520546F676709
:100630006C650A563A0956657273696F6E0A533AC9
:10064000095374617475730A433A09416374697696
:1006500061746520436F6E736F6C65204D6F6465C8
:100660000A46312D4631303A095377697463682060
:10067000746F204C6179657220302D392028463105
:1006800030203D204C30290A302D393A0953776902
:1006900074636820746F204C6179657220302D3945
:1006A0000A47524156453A09537769746368207482
:1006B0006F204C6179657220302028616C746572FE
:1006C0006E617465290A423A094A756D7020746F2B
:1006D00020426F6F746C6F616465720A4553433AD0
:1006E000094A756D7020746F20426F6F746C6F6172
:1006F0006465722028616C7465726E617465290A84
:10070000453A095072696E7420454550524F4D204C
:1007100053657474696E67730A4253504143453A96
:1007200009436C65617220454550524F4D0A000ADD
:10073000002575002E6E6B726F3A20000A00257539
:10074000002E737761705F6261636B736C617368B5
:100750005F6261636B73706163653A20000A002514
:1007600075002E737761705F67726176655F657380
:10077000633A20000A002575002E6E6F5F67756969
:100780003A20000A002575002E737761705F726150
:100790006C745F726775693A20000A002575002E37
:1007A000737761705F6C616C745F6C6775693A2018
:1007B000000A002575002E737761705F7263746C98
:1007C0005F726775693A20000A002575002E7377FD
:1007D00061705F6C63746C5F6C6775693A20000AC6
:1007E000002575002E636170736C6F636B5F746FAF
:1007F0005F636F6E74726F6C3A20000A002575009B
:100800002E737761705F636F6E74726F6C5F63617C
:1008100070736C6F636B3A20000A00253032580009
:100820006B65796D61705F636F6E6669672E72616B
:10083000773A20000A002575002E6D6F7573653AB2
:1008400020000A002575002E6B6579626F61726465
:100850003A20000A002575002E6D61747269783A9D
:1008600020000A002575002E656E61626C653A20D5
:10087000000A00253032580064656275675F636F57
:100880006E6669672E7261773A20000A002575004E
:1008900064656661756C745F6C617965723A20009D
:1008A0003F000A6D6F7573653A206F66660A000A2D
:1008B0006D6F7573653A206F6E0A000A6B65796219
:1008C0006F6172643A206F66660A000A6B6579622E
:1008D0006F6172643A206F6E0A000A6D617472690A
:1008E000783A206F66660A000A6D61747269783A18
:1008F000206F6E0A000A64656275673A206F66664B
:100900000A000A64656275673A206F6E0A000A0A77
:100910004A756D70696E6720746F20626F6F746CBA
:100920006F616465722E2E2E2000433E2000436CC2
:10093000656172696E6720454550524F4D0A0065EA
:1009400065636F6E6669673A0A005B735D004B65AD
:1009500079626F6172642073746172742E0A005B35
:10096000575D005B535D005B525D00040330000087
:1009700000180344006F006D00620072006900639C
:10098000006B003600300044000000160374002D98
:10099000006D006900790061006A0069006D006106
:1009A0000000000403090409025B00030100A032F7
:1009B00009040000010301010009211101000122C5
:1009C00040000705810308000A0904010001030033
:1009D00000000921110100012236000705820320D1
:1009E000000A0904020002030000000921110100AD
:1009F00001222200070583032000010705030320CD
:100A000000011201100100000008EDFE01000100CC
:100A1000010203010631FF0974A1010975150026C1
:100A2000FF009520750881020976150026FF0095C4
:100A30002075089102C005010980A10185031A8172
:100A4000002A83001601002603009501751081001D
:100A5000C0050C0901A10185041A01002A9C021697
:100A60000100269C02950175108100C00501090650
:100A7000A101050719E029E7150025019508750171
:100A800081029501750881010507190029FF1500EC
:100A900026FF0095067508810005081901290595AE
:100AA0000575019102950175039101C011241FBEC6
:100AB000CFEFD4E0DEBFCDBF04B603FE27C08091E8
:100AC000FF0190910002A0910102B09102028730D3
:100AD000904BA740B04BD1F41092FF01109200024E
:100AE000109201021092020214BE84B7877F84BF65
:100AF0000FB6F894A895809160008861809360009B
:100B0000109260000FBEE0E0F8E3099511E0A0E06C
:100B1000B1E0E0EDFDE402C005900D92A033B10715
:100B2000D9F721E0A0E3B1E001C01D92AF3FB207C9
:100B3000E1F70E942B210C94BE260C940000FF9339
:100B4000EF93E0913001F0913101309709F0099570
:100B5000EF91FF910895FC018591803011F0EFDF56
:100B6000FBCF0895FF27E0E230E247FF0CC041953C
:100B700097FF09C0EDE26095709580959095611D95
:100B8000711D811D911D27FF02C0219530E350E2A8
:100B9000AA27660F771F881F991FAA1FA41710F096
:100BA000A41B63955A95A9F7AA3008F0A95FA05D28
:100BB000AF93F395611571058105910541F7ED320C
:100BC00011F4EF93F395F21718F43F93F395FBCFDD
:100BD0008F91B5DFFA95E1F70895E991F991859143
:100BE000803021F0853219F0AADFF9CF089520E096
:100BF000E89455915532C1F3503311F468945591EE
:100C00005A3348F4505390F3220F022E220F220F32
:100C1000200D250FF4CF0EF421958991999153362B
:100C200019F3533729F1533559F1BC018827992716
:100C3000E8945C3621F489919991689455915436E1
:100C400039F446EF7EF077FF0DC08FEF9FEF0AC0BB
:100C500055374AE039F0583540E121F0523642E04C
:100C600009F00895FF93EF937DDFEF91FF91B7CFE8
:100C7000FF93EF93FC0181918030B9F360DFFBCFEC
:100C8000FF93EF9368DFF1CFDF93CF93CDB7DEB75C
:100C90002596A3DFCF91DF91089583302DE592074C
:100CA00029F084309D4559F081E00895FB0182814F
:100CB0008823D1F386E890E00E940E07F5CFFB0170
:100CC0008281882389F384E790E0F6CF0895089520
:100CD000089581E008950C944D061F93CF93DF9300
:100CE00000D000D00F92CDB7DEB749835A836B8313
:100CF00020915E0189819A8121111BC06623A9F090
:100D00000E94BD18182F682F89819A810E945A1855
:100D100069817A81812F0F900F900F900F900F9023
:100D2000DF91CF911F910C94D3080E949118182F36
:100D3000EFCF0E94BD1869817A81EDCFFC0140811F
:100D400051816281738184810C946D061F93CF93CE
:100D5000DF9390E0FC01E352FE4F1491FC01E3525B
:100D6000FD4FD491835A9D4FFC01C491DD2319F0AE
:100D700081EE0E948A0FCC2319F086EE0E948A0F22
:100D8000812F0E94BE10CC2319F086EE0E946F10B6
:100D9000DD2331F081EEDF91CF911F910C946F1024
:100DA000DF91CF911F910895FF920F931F93CF93DF
:100DB000DF938C01F62EF8018491882349F1E80134
:100DC0002196813049F4FE011491812F0E948A0FEF
:100DD000812F0E946F1006C0823089F4FE01849139
:100DE0000E948A0F8E010F5F1F4F8F2D815018F3C5
:100DF000EFE9FFE03197F1F700C00000F7CF833053
:100E000019F4FE018491E5CF0E94A606E801EACF1D
:100E1000DF91CF911F910F91FF90089560E00C94A6
:100E2000D4060E942B1A811102C00E94C81A0C9489
:100E30008D0B0C948F0B0C9468060C941B07089573
:100E40000E94F1100E941F072FEF84E39CE02150C5
:100E500080409040E1F700C000000C94FE1B0F930F
:100E60001F93CF93DF938C010E949E06EC01B80183
:100E70000E946B06882309F474C0B801CE010E9459
:100E8000850D882309F46DC0C6318CE5D80709F4B7
:100E900066C188F4C130FCE5DF0709F468C028F5B5
:100EA000C115DC4509F458C0C801DF91CF911F91ED
:100EB0000F910C946906CE3DFCE5DF0709F46DC087
:100EC00078F4CC3DECE5DE0709F46EC0CD3DDC45A1
:100ED00059F7F8018281882309F443C082E069C090
:100EE000CE018A5F9C450997F8F6F8018281882334
:100EF000D9F20E942B1A811102C00E94C81A0E94C6
:100F00003E1A9093F1018093F001C031FCE5DF07B8
:100F100009F4F4C008F087C0C830ECE5DE0709F436
:100F2000DDC008F05CC0C4308CE5D80709F4CEC041
:100F300008F042C0C230FCE5DF0709F4BFC0C3308F
:100F4000DC4509F4BFC08091F0019091F1010E944D
:100F50004C1A0E94F11005C0F801828181110E9493
:100F6000200780E0DF91CF911F910F910895F80144
:100F700082818823B1F39091DB01892F8E7F90FFCE
:100F800081608093DB0180FF05C08CEC91E00E94C2
:100F9000AB05E7CF8AEB91E0FACFF8018281882395
:100FA00001F30E94C81ADDCFF80182818823C9F2BB
:100FB00080E00E94D221D5CF8091F0018061C630BF
:100FC000ECE5DE0709F447C08091F0018860C73086
:100FD000DC4508F440C08091F00180623CC0CC3018
:100FE0008CE5D80709F482C068F48091F0018C6028
:100FF000CA30FCE5DF0779F108F474C08091F00194
:101000008E7F29C08091F001877FCE30ECE5DE072E
:1010100011F18091F0018B7FCF30DC45E0F08091C1
:10102000F0018F7E18C0CB3F8CE5D80709F452C081
:1010300030F5C331FCE5DF0709F468C078F4C1314D
:10104000ECE5DE0709F45EC08091F0018F77C231D4
:10105000DC4509F078CF8093F00175CFC5318CE580
:10106000D80709F45BC008F46FC08091F10181607A
:10107000CA3FDC4509F067CF8093F10164CFCF3FD1
:101080008CE5D80709F446C060F48091F1018D7FAA
:10109000CD3FFCE5DF0781F368F18091F1018360CA
:1010A000EBCFC130EDE5DE0709F455C008F442C0CE
:1010B000C230DD4509F047CF80E04EC08091F0019D
:1010C0008160C9CF8091F0018260C5CF8091F0012D
:1010D0008460C1CF8091F1018260CECF8091F00118
:1010E0008064B9CF8091F0018068B5CF8091F00124
:1010F0008D7FB1CF8091F1018E7FBECF8091F001C5
:101100008F7DA9CF8091F0018F7BA5CF8091F001D9
:10111000837FA1CF8091F1018C7FAECF8091F001D0
:1011200082FB992790F921E0922790FB82F990FBAE
:1011300083F991CF8091F101982F909591708E7FD6
:10114000892B90FB81F998CF9091F001892F97FB23
:1011500087F9805880CF81E00E94CA1AF4CE0E949D
:101160005219F8019281992381F08A7A91E009F469
:1011700090E090933201811106C089E20E942D19FE
:101180000E949E19EECE85E3F9CF80913201811144
:1011900004C089E20E943419F3CF85E3FBCF90E0CD
:1011A00080E008950895282FE62F872F90E06EE0C5
:1011B00070E00E945926E80FF92FF11D822F90E070
:1011C00066E470E00E945926E80FF91FEE0FFF1F3A
:1011D000EE55FF4F859194910895FC01EE0FFF1F8E
:1011E000E35AFC4F859194910895CF93DF930E9429
:1011F000D3080E94B30AEC01811520E5920708F09C
:1012000042C0811530E4930708F016C1883E91056D
:1012100028F5803E910508F0A3C0883A910588F42E
:10122000853A910508F092C08130910509F498C083
:10123000009709F495C0049708F092C0D0E0C0E090
:101240008FC08F3B910508F48FC0805C9109C03C32
:10125000D105A0F30E94ED08EC0182C0811540E2A7
:10126000940750F4C11581E0D80708F079C0C03F59
:10127000D10520F3D06574C0811520E3920708F0F2
:10128000D2C09F70E7CF811535E5930770F58115C2
:1012900044E5940708F004C1C11582E5D80750F46D
:1012A000C11521E5D20708F4CAC0DC2FCC27C16FD5
:1012B000D06A56C09C2F969596959E012370332731
:1012C000C115D34508F0DAC0C1E0D0E002C0CC0FB0
:1012D000DD1F2A95E2F7892F90E0E5E0880F991F3E
:1012E000EA95E1F7C82BD92BC7C0C11589E5D80706
:1012F000A8F4C11528E5D20708F0D7C0C11536E516
:10130000D30708F09BCF8C2F0E944A0BC82FD0E048
:10131000DC2FCC27CC27DF71D06222C0C1154AE573
:10132000D40708F4C7C0CE0190568115904208F04A
:1013300085CF8D2F8F710E944A0B90E0982F8827C0
:1013400088279F719C012C2BE901E6CF853A9105F6
:1013500009F4BEC0863A910509F0BDC0C2E8D0E4E8
:10136000CE01DF91CF910895883A910509F4B6C076
:10137000893A910509F4B5C08A3A910509F4B4C0D7
:101380008B3A910509F4B3C08C3A910509F4B2C0C7
:101390008B3B910509F4B1C08C3B910509F4B0C0B9
:1013A0008D3A910509F4AFC0803B910509F4AEC0B8
:1013B0008E3A910509F4ADC08F3A910509F4ACC09D
:1013C000813B910509F4ABC0823B910509F4AAC0A9
:1013D000833B910509F4A9C0843B910509F4A8C099
:1013E000853B910509F4A7C0863B910509F4A6C089
:1013F000873B910509F4A5C0883B910509F4A4C079
:10140000893B910509F4A3C08D3B910509F4A2C065
:101410008E3B910509F4A1C08A3B910509F4A0C057
:10142000C0E0D4E49DCF9927D3FF03C0EC01D86C72
:1014300097CFEC01D06C94CFDF70D06A91CFCE0102
:10144000A4E096958795AA95E1F783702C2F2695B1
:101450002695237030E0B5E0220F331FBA95E1F7EF
:10146000382B8C2F8370C1E0D0E002C0CC0FDD1F81
:101470008A95E2F7C22BD32BDC6872CFC1E0D0E0B3
:1014800002C0CC0FDD1F2A95E2F7892F90E075E0AE
:10149000880F991F7A95E1F7C82BD92BDA6860CFAE
:1014A000D82FCC27C46FD06A5BCFDC2FCC27C06F7E
:1014B000D06A56CF8C2F8F700E944A0B34E0D6959D
:1014C000C7953A95E1F7CF709C2FEC01D06948CFD2
:1014D000C1E8D0E445CFC3E8D0E442CFC2EED4E4C3
:1014E0003FCFC9EED4E43CCFCAEED4E439CFC5EB4C
:1014F000D4E436CFC6EBD4E433CFC3EBD4E430CF5F
:10150000C4EBD4E42DCFC7EBD4E42ACFCCECD4E4A5
:1015100027CFCDECD4E424CFC3E8D5E421CFCAE86B
:10152000D5E41ECFC2E9D5E41BCFC4E9D5E418CF7A
:10153000C1E2D6E415CFC3E2D6E412CFC4E2D6E4CA
:101540000FCFC5E2D6E40CCFC6E2D6E409CFC7E29E
:10155000D6E406CFCFE6D4E403CFC0E7D4E400CF8F
:10156000CAE2D6E4FDCE82389105B1F1B0F4813300
:10157000910509F475C048F48932910509F469C0F0
:101580008A32910509F473C008958533910509F4F1
:1015900059C08933910501F10895833E9105A9F160
:1015A00038F4803E9105F9F0823E910549F10895A5
:1015B000863E9105A9F1873E9105C9F1843E9105CA
:1015C00019F52091F10121FF1FC08091F00184FDE8
:1015D00014C087EE90E008952091F0012370A1F0EF
:1015E00080EE90E008952091F00120FD47C03091F9
:1015F000F10130FF09C024FF44C090E080E004C046
:101600002091F00122FDF7CF08952091F00122FDF5
:101610003BC03091F10130FDE3CF24FFF5CFEDCF9A
:101620002091F00123FFF0CF24FDE7CFD2CF20910E
:10163000F00123FD2CC03091F10131FFEECF84EE9B
:1016400090E008952091F00125FFDECF89E290E03F
:1016500008952091F00125FFD7CF85E390E008950C
:101660002091F00126FFD0CF8AE290E008952091EA
:10167000F00126FFC9CF81E390E0089589E390E06F
:10168000089583EE90E0089582EE90E0089586EE4E
:1016900090E008959091F00192FF06C0282F2871E4
:1016A0002830F9F4877F846093FF06C0282F2871C3
:1016B0002831F1F4877E84612091F10120FF06C07A
:1016C000382F38713830D9F4877F816021FF06C008
:1016D000282F28712831D1F4877E816194FD877E7F
:1016E0000895282F24712430F9F68B7F8860DCCF91
:1016F000282F2471243101F78B7E8861DDCF382FAC
:101700003171313019F78E7F8860E0CF282F217139
:10171000213121F78E7E8861E1CF0C9466060C940E
:101720006706E82FF0E0EE0FFF1FED5CFE4F8081B3
:1017300091810895CF92DF92EF92FF920F931F93C2
:10174000CF93DF938DE693E00E94AB0583E3E82E11
:1017500081E0F82ED0E0C0E098E6C92E93E0D92EC3
:101760000FE513E0DF93CF93DF92CF920E94440600
:1017700085E693E00E94AB05F701819191917F018D
:101780000E941E1A9F938F931F930F930E944406EB
:101790008DE593E00E94AB0521968DB79EB7089624
:1017A0000FB6F8949EBF0FBE8DBFC530D105D1F6E0
:1017B000DF91CF911F910F91FF90EF90DF90CF902D
:1017C0000895CF93DF93ABE1B1E040E251E0C1E097
:1017D000D0E08D91E82FE295EF70F0E061A18F707D
:1017E0009E0101C0220F8A95EAF7922F90959623C9
:1017F00091A382A1822B82A34A175B0751F7ADE028
:10180000B1E061E070E08D91E82FE295EF70F0E0DB
:1018100041A18F709B0101C0220F8A95EAF7922F98
:101820009095942391A382A1822B82A381E0AB3176
:10183000B80749F710923E0110923D011092340111
:10184000109233011092400110923F011092360124
:10185000109235011092420110924101109238010C
:1018600010923701109244011092430110923A01F4
:1018700010923901109246011092450110923C01DC
:1018800010923B0185E00E94DF0CDF91CF910C9418
:1018900011075F926F927F928F929F92AF92BF9249
:1018A000CF92DF92EF92FF920F931F93CF93DF932C
:1018B0002DE331E00BE111E0512CEE24E394F12C07
:1018C000E901899099909E01DE011E921E92F80115
:1018D00081918F01E82FE295EF70F0E091A18F7078
:1018E000B70101C0660F8A95EAF7892F862B81A37D
:1018F00082A1662E6094862182A380EA8A95F1F700
:101900008DE0C82E81E0D82E50E040E0E6017990CD
:101910006E01872D82958F7090E0EC0188A1AD90CB
:10192000BC90119790E0D72DDF7002C095958795F8
:10193000DA95E2F780FD40C0C701042E02C0880F8F
:10194000991F0A94E2F78A299B2911969C938E93FA
:101950004F5F5F4F4E305105C9F681A1D62DD82378
:10196000D1A382A1682B62A381E04D915C914815BF
:10197000590509F480E0582AE1E027343E0709F0D0
:101980009FCF252D45E063E371E08DE391E00E9458
:10199000E00C0E941907852DDF91CF911F910F91C7
:1019A000FF90EF90DF90CF90BF90AF909F908F907F
:1019B0007F906F905F90089590E080E0C4CF08958D
:1019C000FF920F931F93CF93DF93F82E092F162FBB
:1019D000D72FC42F222349F081E0809349010E9430
:1019E000981B909348018093470180914901882377
:1019F000A1F080914701909148010E94B01B069789
:101A000060F0EF2DF02FA12FBD2F90E080E0D0E00F
:101A10008C179D0744F010924901DF91CF911F91DF
:101A20000F91FF900895219131912D933D9301964F
:101A3000EFCF0F931F93CF93DF93C62FD42F022F97
:101A4000FC0182818823C9F060934C010E94981B9D
:101A500090934B0180934A0180E28C0F883008F00C
:101A60004FC0C77081E001C0880FCA95EAF7DF91C7
:101A7000CF911F910F910C94D11010914C0116131E
:101A800034C080914A0190914B010E94B01B059790
:101A900060F5C0E2CD0F1D17B9F080E2810F8830EC
:101AA00040F4177081E001C0880F1A95EAF70E9490
:101AB000D810C83048F481E09D2F977001C0880F7E
:101AC0009A95EAF70E94D110802F0E94BE10C8306C
:101AD000B8F4D77081E001C0880FDA95EAF7DF919A
:101AE000CF911F910F910C94D81080E28C0F883009
:101AF00038F4C77081E001C0880FCA95EAF7EFCFCC
:101B0000DF91CF911F910F9108959C01CB01233F4D
:101B10004CE5340731F190F4283DFCE53F07E9F04E
:101B2000293D4CE5340769F1273D3C4579F426E22F
:101B300041EE61EE0E94190D80E00895253FFCE51D
:101B40003F07B9F090F0263F3C45B9F0FC01828197
:101B50008823D1F010924C01089527E245EE65EEFE
:101B6000E9CF26E241EE60EEE5CF27E245EE64EEF6
:101B7000E1CF26E241EE62EEDDCF27E245EE66EEF2
:101B8000D9CF28E241E0EBCF81E008959093520154
:101B9000809351010895E0915101F09152013097E5
:101BA00021F00190F081E02D099480E00895EF92FA
:101BB000FF920F931F93CF93DF938C01E09151011C
:101BC000F09152013097C1F10280F381E02D099527
:101BD0008091DB0182FF30C080FF04C08CE893E07D
:101BE0000E94AB05D0E0C0E086E8E82E83E0F82E46
:101BF0008091DB0180FF0EC0F801EC0FFD1F80819A
:101C00001F928F93FF92EF920E9444060F900F90C5
:101C10000F900F902196C830D10551F78091DB01CC
:101C200080FF0AC084E893E0DF91CF911F910F916C
:101C3000FF90EF900C94AB05DF91CF911F910F9126
:101C4000FF90EF90089520914F0130915001281797
:101C5000390771F09093500180934F01E091510149
:101C6000F0915201309721F00680F781E02D099420
:101C7000089520914D0130914E012817390771F0D8
:101C800090934E0180934D01E0915101F0915201EA
:101C9000309721F00084F185E02D0994089508958E
:101CA00008950C944F0E08950C94530E0E94500EFC
:101CB0000C94510E81E008950E948F1B0E94E10B4D
:101CC0000E94221C0C94540ECF93C82F8091DB01EC
:101CD00082FF1EC080FF1CC085EA93E00E94AB0516
:101CE0008091DB0180FF14C01F92CF9380EA93E0C4
:101CF0009F938F930E9444068091DB010F900F9079
:101D00000F900F9080FF04C08EE993E00E94AB0516
:101D10008C2FCF910C941D075F926F927F928F92C0
:101D20009F92AF92BF92CF92DF92EF92FF920F936A
:101D30001F93CF93DF93CDB7DEB72A970FB6F894F2
:101D4000DEBF0FBECDBF0E94490C0E945A0E8823F1
:101D500009F478C094E5A92E91E0B92E10E000E0D6
:101D600088248394912C502E802F0E94910B7C010B
:101D7000F501C190D1905F01C816D90609F45CC085
:101D80008091DB0181FD0E949A0B90E080E0CE24DF
:101D9000DF243401082E02C0660C771C0A94E2F797
:101DA000960126213721232B09F441C08E835F82BF
:101DB000E620F72081E0EF2809F480E088870E9480
:101DC000981B8160782F9A8789874E815F8168850B
:101DD0008A850E94490F000F111FF801EC5AFE4F2F
:101DE0008081918168267926718260820E94CB0D64
:101DF000909153018917B9F10E94CB0D8093530143
:101E00002A960FB6F894DEBF0FBECDBFDF91CF91FB
:101E10001F910F91FF90EF90DF90CF90BF90AF9008
:101E20009F908F907F906F905F900C94640E0196BE
:101E30008E30910509F0ADCF0F5F1F4F05301105B2
:101E400009F091CF8FEF89838A831B820E94981BB0
:101E50008160782F9D838C8349815A816B818D812C
:101E60000E94490FC3CF2A960FB6F894DEBF0FBE6B
:101E7000CDBFDF91CF911F910F91FF90EF90DF9039
:101E8000CF90BF90AF909F908F907F906F905F901A
:101E90000895CF93DF93CDB7DEB72B970FB6F894A5
:101EA000DEBF0FBECDBF4F83588769877A878B8788
:101EB0008A859B85892B21F0852F84238F3FD9F438
:101EC0001E821D8285E0FE013796DE01119601908B
:101ED0000D928A95E1F749815A816B817C818D81D0
:101EE0009E812B960FB6F894DEBF0FBECDBFDF915B
:101EF000CF910C94361680915F019091600101960C
:101F00009093600180935F01DBCFFC018081918120
:101F10000C94FF18CF93C82F882309F4DEC08238B1
:101F2000C1F40E94CB0D81FDD8C089E30E942D1918
:101F30000E949E192FEF81EE94E021508040904046
:101F4000E1F700C0000089E30E943419CF910C949E
:101F50009E198338A1F40E94CB0D80FDBEC083E59D
:101F60000E942D190E949E192FEF81EE94E02150BE
:101F700080409040E1F700C0000083E5E5CF843861
:101F8000A1F40E94CB0D82FDA8C087E40E942D1908
:101F90000E949E192FEF81EE94E0215080409040E6
:101FA000E1F700C0000087E4CFCF8CEF8C0F813ABF
:101FB00048F48C2F0E94CB1E81118FC08C2F0E9461
:101FC0002D19C4CF80E28C0F883048F4C77081E0AF
:101FD00001C0880FCA95EAF70E945519B7CF8BE563
:101FE0008C0F833068F481E890E0C53A31F083E8E3
:101FF00090E0C63A11F482E890E0CF910C94230E61
:1020000088E58C0F873108F068C082EE90E0C83A0E
:1020100009F460C089EE90E0C93A09F45BC08AEE29
:1020200090E0CA3A09F456C085EB90E0CB3A09F447
:1020300051C086EB90E0CC3A09F44CC083EB90E0C1
:10204000CB3B09F447C084EB90E0CC3B09F442C0A1
:1020500087EB90E0CD3AF1F18CEC90E0C03BD1F110
:102060008DEC90E0CE3AB1F183E891E0CF3A91F176
:102070008AE891E0C13B71F182E991E0C23B51F104
:1020800084E991E0C33B31F181E292E0C43B11F17C
:1020900083E292E0C53BF1F084E292E0C63BD1F0EE
:1020A00085E292E0C73BB1F086E292E0C83B91F056
:1020B00087E292E0C93B71F08FE690E0CD3B51F0B2
:1020C00080E790E0CE3B31F090E080E0CA3B11F435
:1020D0008AE292E0CF910C94390ECF910895882333
:1020E00009F44BC0823871F40E94CB0D81FF45C0CA
:1020F00089E30E942D190E949E1989E30E943419D8
:102100000C949E19833859F40E94CB0D80FF35C082
:1021100083E50E942D190E949E1983E5EFCF843834
:1021200059F40E94CB0D82FF28C087E40E942D192C
:102130000E949E1987E4E2CF9CEF980F913AF0F24B
:1021400090E2980F983050F4877091E001C0990F99
:102150008A95EAF7892F0E945B19D2CF9BE5980FE9
:10216000933020F490E080E00C94230E885A87315D
:1021700020F490E080E00C94390E0895CF93C82F9E
:102180000E948A0FC93349F42FEF87EE93E0215064
:1021900080409040E1F700C000008C2FCF910C945C
:1021A0006F10882321F00E9455190C949E190895F0
:1021B000882321F00E945B190C949E1908950E94B7
:1021C00072190E9482190E949E1990E080E00E947C
:1021D000230E90E080E00C94390E0E943B190C9481
:1021E000DF100E9462190C94ED10E92FE295EF7058
:1021F000E250EE3070F4F0E0E054F94D0C947626A5
:10220000803F19F020F4883E20F481E00895843F57
:10221000E1F380E00895883EC0F3813FD1F7F5CF28
:1022200093FB882780F908950E94FF180C94F510FD
:102230004F925F926F927F92BF92CF92DF92EF9216
:10224000FF920F931F93CF93DF936C01EB01FC017F
:10225000058102950F70128111110E9472190E945E
:102260004B19E82E882371F01123B1F080E28C0F16
:10227000883090F082E00E94E9190E944B1991E0A9
:10228000E82EE926BD2EB2942FE0B222EB2DF0E02D
:10229000E253F94D0C947626E12CF4CFFD2FFF701C
:1022A000FF2E8D2F807F19F0F29490EFF9221123E9
:1022B000A9F0FF2059F080E28C0F883010F0C11196
:1022C00009C08F2D0E9455190E949E198C2F0E94C3
:1022D0008A0F14C08F2D0E946519F6CF8C2F0E9493
:1022E0006F10FF2059F080E28C0F883010F0C11180
:1022F00038C08F2D0E945B190E949E19EB2DE8506B
:10230000FF0B349720F40E94CB0D0E941D07CE01D5
:102310000E94F5108111A4C11092600110925F011A
:10232000EE2009F4AFC10E94471980FDABC1F60150
:1023300012820E9441190E94BE17C6010E945013CA
:102340000E944119DF91CF911F910F91FF90EF9063
:10235000DF90CF90BF907F906F905F904F900C94E4
:10236000DF178F2D0E946B19C7CF2D2F2F70F22EE4
:102370008D2F807F803219F0F29480EFF822CC23E9
:1023800069F0C13049F1112391F1002351F1F601B7
:10239000858180FF9BCF8F70858323C0112381F0BF
:1023A000011106C00E9485198F290E94D110A6CF65
:1023B0000130C1F70E9485198F290E948B199ECF89
:1023C000011106C00E9494198F2D0E94D81096CF3B
:1023D000013009F493CFF6CF112329F0063008F02D
:1023E0008DCF8F2DE2CF053008F088CFEDCF0023C1
:1023F00059F3C93349F4FFEF27EE33E0F1502040A1
:102400003040E1F700C000008C2F0E946F1076CFA3
:102410008D2F86958695837061F0813009F06ECF9F
:10242000CE019370111102C090E080E00E94390E3D
:1024300065CFCE019370111102C090E080E00E9440
:10244000230E5CCF8D2F837009F043C0111156CF3E
:102450002C2F229526952770220F220F6C2F6F703C
:10246000462E512C712C612C022E04C0440C551C9C
:10247000661C771C0A94D2F760E070E0CB01C4FFC1
:102480000FC06FE070E080E090E004C0660F771F3F
:10249000881F991F2A95D2F7609570958095909521
:1024A0002D2F26952695237064297529862997292D
:1024B000223049F058F4213019F00E9470171ECFD5
:1024C0000E945E171BCF0E94821718CF0E945C17D4
:1024D00015CF8695112311F08D2F8170882309F473
:1024E0000DCF2C2F229526952770220F220F6C2FAF
:1024F0006F70462E512C712C612C022E04C0440C9E
:10250000551C661C771C0A94D2F760E070E0CB0182
:10251000C4FF0FC06FE070E080E090E004C0660F81
:10252000771F881F991F2A95D2F76095709580951F
:1025300090952D2F26952695237064297529862937
:102540009729223049F058F4213019F00E943518AB
:10255000D5CE0E942318D2CE0E944718CFCE0E941B
:102560009817CCCE8D2F8F70F82E112321F00E945A
:10257000BE178C2F1ACF8C2F0E94D8108F2D0E943F
:10258000DF17BCCEC23F99F160F4C03FD9F0C13F24
:1025900039F1112309F444C0011198CE8D2F8F71A8
:1025A00023C0C33F49F1C43FA1F7112379F19D2F07
:1025B0009F71F92E892F0E94BE1763E08F2D0E9414
:1025C000D4199CCE112341F0053008F097CE8D2F01
:1025D0008F710E94021892CE063008F08FCEF7CF8E
:1025E0008D2F8F71112359F20E94BE1787CE8D2F28
:1025F0008F711123C9F3C3CF112329F08D2F8F7150
:102600000E94A9177BCE0E94A41778CE81E00E9479
:10261000E919023008F472CE82E00E94E9196ECE08
:10262000002359F0C93309F0EFCEEFEFF7EE23E0C6
:10263000E150F0402040E1F7E5CE8D2F8F719FCF24
:102640004D2F4F706C2FC6010E94CF080E94D416E8
:1026500055CE4D2F4F706C2FC6010E94D2084ECE22
:10266000112319F0011158CE5BCE011155CE809186
:102670005F0190916001029709F04ECE8C2F0E946D
:10268000BE104ACEDF91CF911F910F91FF90EF9036
:10269000DF90CF90BF907F906F905F904F900895A4
:1026A0000F931F93CF93DF93EC018B819C81892B38
:1026B00029F08881998189238F3F29F4DF91CF9177
:1026C0001F910F910895CE010E942F078823B1F327
:1026D000688179818A810E9409198C010E945918A8
:1026E0000E945B17B801CE01DF91CF911F910F912E
:1026F0000C941811CF93DF9300D000D00F92CDB778
:10270000DEB70F900F900F900F900F90DF91CF9149
:102710000895CF93DF9300D000D000D0CDB7DEB7BF
:1027200026960FB6F894DEBF0FBECDBFDF91CF91D6
:102730000895CF93DF93C0916101809162018C1362
:1027400003C0DF91CF910895D0E0CE0166E070E044
:102750000E945926FC01ED59FE4F40815181628152
:102760007381848195810E9489132196C770E5CF7A
:10277000409193015091940160919501709196015F
:1027800080919701909198010C948913CF93B82F61
:10279000C62F20916101A09162012A1303C080E03D
:1027A000CF91089530E0C90166E070E00E9459269B
:1027B000FC01ED59FE4F81818C1306C080818B1383
:1027C00003C08281841304C02F5F3F4F2770E5CF81
:1027D00081E0E6CFFF920F931F93CF93DF93809119
:1027E0009801807FB9F480919501882399F0209118
:1027F0006101009162014091930110919401E09177
:102800009601F0919701F42EF122EF01C095D09539
:10281000021306C0DF91CF911F910F91FF90089591
:1028200030E0309719F08FEFF81207C02F5F3F4F5D
:102830002770EECF8C0F9D1F1DC0C90166E070E0B0
:102840000E945926DC01AD59BE4F11968C9111970B
:102850008113ECCF8C918413E9CF12968C9112974F
:102860008111E4CF13968D919C918E179F0710F3E1
:102870008E1B9F0B0597D0F6809198018F70806119
:1028800080939801C90166E070E00E945926FC011E
:10289000E859FE4F90819F709061908383E991E0A9
:1028A0000E945013DF91CF911F910F91FF900C94D4
:1028B00099139F92AF92BF92CF92DF92EF92FF92C5
:1028C0000F931F93CF93DF93CDB7DEB761970FB60A
:1028D000F894DEBF0FBECDBF8C0185E0F801DE01AC
:1028E0001D9601900D928A95E1F7D801DC90119622
:1028F000EC9011971296CC9012978091960190913E
:102900009701009709F490C12091930130919401AF
:10291000422F43234F3F09F487C11396AD90BC90DB
:1029200090909501992009F421C1A816B906D8F113
:10293000F501E81BF90BCF01FF24F394059708F08C
:10294000F12C80919801982F907FFF2009F4C7C047
:1029500091118EC0FC2C3E112BC02D1129C0C1102D
:1029600027C08F708061809398010E94B81383E91B
:1029700091E00E94501380919801D80115968C9394
:102980008F2D61960FB6F894DEBF0FBECDBFDF91DD
:10299000CF911F910F91FF90EF90DF90CF90BF905C
:1029A000AF909F900895809590958A0D9B1DC4CF00
:1029B000A114B10429F08E2D8D218F3F09F053C150
:1029C00080E080FF16C04C2D6E2D8D2D0E94C61309
:1029D000882379F083E991E00E94501386E0E3E9CF
:1029E000F1E0DF011D928A95E9F70E94B813F12CFE
:1029F000C7CFAB2829F08E2D8D218F3F09F030C134
:102A000080E0B82FB170AB2E80FF29C04C2D6E2D09
:102A10008D2D0E94C613B82E811121C0DD86EE8651
:102A20008D859E850E94FF18292F22952F702230B8
:102A300050F0243078F49F7051F0F8019581907F28
:102A400031F4FB2C9DCF9F7011F08823D1F3805E71
:102A50008830B8F3C8010E945013BA2CF2CFCC20B2
:102A600009F48ECF80919801816080939801BFCF47
:102A70003E1106C02D1104C0D801CC2009F49BC022
:102A8000DD86EE868D859E850E941411882319F1BE
:102A9000CC2009F180919801803270F0209193014F
:102AA0003091940138872F831986BB86AA868C873C
:102AB000CE0107960E94501386E0F801A3E9B1E029
:102AC00001900D928A95E1F70E94EA130E94B813D3
:102AD000FF24F39455CFC8010E945013F9CF9111F0
:102AE00015C07A2DB98AA88A4D2D5E2D6C2D898945
:102AF0000E947A1383E991E00E94501386E0E3E993
:102B0000F1E0DF011D928A95E9F762C03E1112C023
:102B10002D1110C0C1100EC0F8018583C8010E949C
:102B20005013E3E9F1E086E0DF011D928A95E9F7B1
:102B3000F92C26CFDD86EE868D859E850E941411A8
:102B4000882349F2CC2039F280919801803208F430
:102B5000B3CF20919301309194013A8329831B8252
:102B6000BD82AC828E83CE010196A4CFA816B90691
:102B700090F1F501E81BF90BCF01F12C059708F056
:102B800049C0FC2CCC2009F4A6CF3E1132C02D1137
:102B900030C08091980180FD23C0982F907F01F173
:102BA000D80115968C931597903F39F0982F907F08
:102BB000905F8F70892B15968C93C8010E945013DB
:102BC00086E0F801A3E9B1E001900D928A95E1F762
:102BD0000E94B813D5CE809590958A0D9B1DCDCFC0
:102BE00086E0F801A3E9B1E001900D928A95E1F742
:102BF000C7CEDD86EE868D859E850E9414118111DB
:102C00005BCF80919801816080939801C8010E94F8
:102C10005013B6CE7A2DB98AA88A4D2D5E2D6C2D13
:102C200089890E947A136ACFCC2009F454CFDD86BB
:102C3000EE868D859E850E941411F82E882309F456
:102C40004ACF86E0F801A3E9B1E001900D928A95A0
:102C5000E1F783E991E00E94850F0E94EA13B8CF63
:102C600081E08C25CECE81E08C25ABCECF93DF9357
:102C7000CDB7DEB72C970FB6F894DEBF0FBECDBF31
:102C80004F83588769877A878B879C87CE01079601
:102C90000E9459148823D1F08A859B85892B39F0AD
:102CA0004F815885842F85238F3F09F076C080910E
:102CB000610190916201891349C02C960FB6F89476
:102CC000DEBF0FBECDBFDF91CF91089586E0FE013C
:102CD0003796DE01119601900D928A95E1F78A856B
:102CE0009B85892B21F388859F8189238F3FF9F26A
:102CF0008091620190E09C012F5F3F4F2770332746
:102D0000409161014217130671F40E94F110109274
:102D100062011092610186E0E3E9F1E0DF011D92BA
:102D20008A95E9F7C4CF66E070E00E945926DC017D
:102D3000AD59BE4F96E0FE01319601900D929A95E5
:102D4000E1F7209362010E949913B1CF90E066E011
:102D500070E00E9459268D599E4F0E945914882375
:102D600009F4ABCF8091610190E066E070E00E94D1
:102D70005926FC01ED59FE4F4081518162817381DA
:102D8000848195810E9489138091610190E0019670
:102D900087709927809361018ACF69857A858B85B1
:102DA0009C850E94891383CFEF92FF920F931F930C
:102DB000CF93DF938C01892B81F0F12CEE24E394E7
:102DC000E8012196F8018491843770F4843008F08A
:102DD0005FC08130B1F08230A1F1DF91CF911F91BE
:102DE0000F91FF90EF900895853709F44CC008F4D7
:102DF0003DC09CE7980F903780F78F770E946F1047
:102E000049C00E5F1F4FFE01849190E2980F9830E9
:102E100060F48770FE2D01C0FF0F8A95EAF78F2FAF
:102E20000E9475190E949E1902C00E948A0F8F2D60
:102E3000815030F2EFE9FFE03197F1F700C0000078
:102E4000F7CF0E5F1F4FFE01849190E2980F9830EC
:102E500050F48770FE2D01C0FF0F8A95EAF78F2F7F
:102E60000E947B19DFCF0E946F10E1CF0E5F1F4FD2
:102E7000FE01C491C150D8F28FE99FE00197F1F7AC
:102E800000C00000F7CF0E5F1F4FFE01F490CFCFC0
:102E90000E948A0F8E01CBCF08950C944C170E948C
:102EA0004D176093CA017093CB018093CC0190932E
:102EB000CD010C94DF1008950C944F170F931F93BE
:102EC0000091CA011091CB012091CC013091CD012C
:102ED000602B712B822B932B1F910F910C944F170A
:102EE0000F931F930091CA011091CB012091CC0147
:102EF0003091CD0160237123822393231F910F9181
:102F00000C944F170F931F930091CA011091CB019E
:102F10002091CC013091CD01602771278227932722
:102F20001F910F910C944F170C944C170C949417FD
:102F30000E9496176093C6017093C7018093C801E1
:102F40009093C9010C94DF1060E070E0CB010C9409
:102F500098170F931F9341E050E060E070E08A0102
:102F60009B0104C0000F111F221F331F8A95D2F747
:102F7000C901B8011F910F910C9498170F931F93DB
:102F800041E050E060E070E004C0440F551F661F50
:102F9000771F8A95D2F78091C6019091C701A091C1
:102FA000C801B091C9018A019B01082B192B2A2B5A
:102FB0003B2BC901B8011F910F910C9498170F93E7
:102FC0001F9341E050E060E070E004C0440F551FE3
:102FD000661F771F8A95D2F7CB01BA01609570956D
:102FE000809590950091C6011091C7012091C8016C
:102FF0003091C90160237123822393231F910F9184
:103000000C9498170F931F9341E050E060E070E03C
:1030100004C0440F551F661F771F8A95D2F7809111
:10302000C6019091C701A091C801B091C9018A0160
:103030009B01082719272A273B27C901B8011F919F
:103040000F910C9498170F931F930091C601109144
:10305000C7012091C8013091C901602B712B822BCF
:10306000932B1F910F910C9498170F931F9300911E
:10307000C6011091C7012091C8013091C901602398
:103080007123822393231F910F910C9498170F9310
:103090001F930091C6011091C7012091C801309182
:1030A000C90160277127822793271F910F910C94E4
:1030B00098170895CF93DF93282F362F892F6EE02E
:1030C0000E945026820F982F9770E1E001C0EE0F0A
:1030D0009A95EAF786958695869590E065E070E08A
:1030E0000E945926DC01A756BE4F50E040E0632FF6
:1030F00070E08D91ED0121979B01042E02C0369561
:1031000027950A94E2F72170219528272E23282756
:1031100028834F5F5F4F4530510559F7DF91CF91BD
:103120000895282F892F6EE00E945026820FA82F25
:10313000A77086958695869590E065E070E00E9480
:103140005926FC01E756FE4F50E040E080E0219117
:1031500030E00A2E02C0369527950A94E2F72170D6
:103160003327042E01C0220F0A94EAF7822B4F5F07
:103170005F4F4530510559F70895BF92CF92DF92C6
:10318000EF92FF920F931F93CF93DF938C01C09028
:10319000C601D090C701E090C801F090C9018091AC
:1031A000CA019091CB01A091CC01B091CD01C82A68
:1031B000D92AEA2AFB2ACFE1D0E0BC2ED701C601EA
:1031C0000C2E04C0B695A795979587950A94D2F7CB
:1031D00080FD0EC0219788F7B12C8B2DDF91CF9108
:1031E0001F910F91FF90EF90DF90CF90BF900895C7
:1031F000B8018C2F0E94F508019761F3EECFCF93B1
:10320000DF93EC010E94BD18BE01DF91CF910C94B9
:10321000F5081F93CF93DF93EB0190915E01992303
:1032200031F0CB01DF91CF911F910C94FF188823CF
:1032300079F0CB010E94BD18182F682FCE010E9493
:103240005A18BE01812FDF91CF911F910C94F50880
:10325000CB010E949118182FF4CF682F80910001A4
:10326000909101010C94081B682F809100019091AE
:1032700001010C940A1B80910001909101010C94B2
:103280000C1B8091CE01859585958595089580913B
:10329000CE01877008959091CE01977081E009F476
:1032A00080E008958091DA0108959091DA01892BE8
:1032B0008093DA01089580959091DA019823909394
:1032C000DA0108951092DA0108959091D901892BBD
:1032D0008093D901089580959091D9019823909376
:1032E000D90108951092D90108959091D801892BA0
:1032F0008093D801089580959091D8019823909358
:10330000D80108951092D80108958091CF010895B1
:1033100008950C9488199091CF01981721F080930B
:10332000CF010C94891908958091CF01882329F049
:103330001092CF0180E00C9489190895E09100016A
:10334000F09101018091DA018083E0910001F09118
:10335000010180819091D901892B8083E091000146
:10336000F091010180819091D801892B8083909107
:10337000CF01992381F0E0910001F091010180815A
:10338000892B808380910001909101010E94CF1AC6
:1033900081110E94941980910001909101010C9477
:1033A000D70D08950C94D119982F990F990F990F53
:1033B000962B9093CE010E94BE178091CE018595E9
:1033C000859585950C94D2191092CE0180E00C94CD
:1033D000D2199091CE01809589238093CE01282F18
:1033E000277071F4282F082E000C330B9217130648
:1033F00039F08595859585950E94DF170C94E41921
:10340000089590933101809330010895829590E062
:103410009C01220F331F220F331F2C7C959587951B
:10342000959587958373282B30E0C901880F991FE4
:103430008A7A359527952575822B0895CF93DF934A
:10344000D92F0E94061AC82F8D2F0E94061A9C2F72
:10345000DF91CF91089590E080E00E94842621E0E2
:103460008C3E9E4F09F020E0822F089582E090E08C
:103470000C947C2683E090E00C947C26CF9384E02F
:1034800090E00E947C26C82F81E290E00E947C267A
:10349000982F8C2FCF910895CF93C92F682F84E058
:1034A00090E00E948A266C2F81E290E0CF910C94EC
:1034B0008A26AB01BC018FE090E00C949C26AB0106
:1034C000BC0183E190E00C949C2660E070E0CB01AD
:1034D0000C945F1A60E070E0CB010E94591A0C94C2
:1034E000651A6CEE7EEF90E080E00E94A82660E016
:1034F00082E090E00E948A2660E083E090E00E94F3
:103500008A261092CA011092CB011092CC0110921F
:10351000CD0160E084E090E00E948A2660E081E2D4
:1035200090E00E948A2660E085E090E00E948A2672
:1035300060E086E090E00E948A266FEF87E090E0EE
:103540000E948A2640E050E0BA0188E090E00E94A4
:103550009C2660E08DE090E00E948A2640E050E0EA
:10356000BA0188E190E00E949C2660E087E190E04B
:103570000E948A2640E050E0BA018CE190E00E946F
:103580009C2660E080E290E00E948A260C946A1AF1
:103590000C94711A682F8EE090E00C948A269C019E
:1035A0002E5F3F4FAC01485F5F4F80E02417350727
:1035B00009F40895F90191919F019923B9F38F5F5F
:1035C000F5CF9C01FC0132969FEF80E041914617B8
:1035D00051F09F3F19F4411101C0982F8F5F863041
:1035E000A9F79F3F09F40895290F311D97FD3A95DA
:1035F000F90162830895FC01329608962191261301
:1036000003C0DF0111971C92E817F907B9F7089575
:103610000C94E11A0C94FB1A029626E0FC0111921C
:103620002A95E9F70895089508950C94141B0E94B3
:10363000151B8091F601843049F11092DC0188E17C
:1036400090E020E40FB6F894A895809360000FBE38
:103650002093600080E00E941D070E94151B83B725
:10366000817F846083BF83B7816083BF78948895AE
:1036700083B78E7F83BF0FB6F894A89580916000C2
:10368000886180936000109260000FBE08950895D5
:10369000CF930E94131B0E94490C0E94471BC0E05D
:1036A0008C2F0E94910B892B31F4CF5FC530C1F76D
:1036B00080E0CF91089581E0FCCF08950C945D1BCC
:1036C0000E94F1100E94CB0D0E941D070C945E1BFE
:1036D0001F921FB61F9211248F939F93AF93BF9396
:1036E0008091DC01811113C08091EC019091ED017A
:1036F000A091EE01B091EF014196A11DB11D809303
:10370000EC019093ED01A093EE01B093EF01BF9116
:10371000AF919F918F911F901FBE1F90189582E0CF
:1037200084BD93E095BD9AEF97BD80936E00089598
:103730002FB7F8948091EC019091ED01A091EE01EA
:10374000B091EF012FBF08952FB7F8946091EC016D
:103750007091ED018091EE019091EF012FBF0895DE
:10376000CF92DF92EF92FF920F931F932FB7F894AF
:103770004091EC015091ED016091EE017091EF01EB
:103780002FBF6A017B01EE24FF248C0130E020E092
:10379000C016D106E206F30650F0481B590BCA01C9
:1037A0001F910F91FF90EF90DF90CF9008954150BF
:1037B0005109F3CF78941F921FB61F9211248F9353
:1037C0009F93AF93BF938091EC019091ED01A091F5
:1037D000EE01B091EF010196A11DB11D8093EC01A6
:1037E0009093ED01A093EE01B093EF01BF91AF91E3
:1037F0009F918F911F901FBE1F90189581E080931D
:10380000E00080E28093D8001092C9008FE19EE42E
:103810000197F1F700C0000087E090EBDC01809396
:10382000FF0190930002A0930102B093020288E18D
:103830009CE00FB6F894A895809360000FBE90931B
:103840006000FFCF0E942B1A811102C00E94C81A8B
:103850000E94361A8093DB010E943E1A9093F10178
:103860008093F0010E943A1A682F70E090E080E0A7
:103870000C945C17CF93C82F1F928F938EEB93E01D
:103880009F938F930E94440661E070E080E090E097
:1038900004C0660F771F881F991FCA95D2F70E9430
:1038A0005C170F900F900F900F90CF910C94F11028
:1038B000CF93DF938B3109F409C208F0A0C18B309C
:1038C00009F4C7C108F06AC1863009F4D5C148F4CB
:1038D000853009F4A2C180EA98E00E94AB0580E03F
:1038E000DBC1873009F4DBC18830A9F78FE399E0A9
:1038F0000E94AB0580E998E00E94AB050E943A1A4D
:103900001F928F938DE898E09F938F930E944406B7
:103910008BE898E00E94AB050E94361AC82F88E712
:1039200098E00E94AB051F92CF9383E798E09F93A6
:103930008F930E94440681E798E00E94AB0587E6DA
:1039400098E00E94AB058C2F81701F928F9384E6C4
:1039500098E09F938F930E94440682E698E00E942D
:10396000AB0588E598E00E94AB05C1FB882780F98C
:103970001F928F9385E598E09F938F930E94440652
:1039800083E598E00E94AB0587E498E00E94AB05D0
:10399000C2FB882780F91F928F9384E498E09F935D
:1039A0008F930E94440682E498E00E94AB0589E36D
:1039B00098E00E94AB05C3FBCC27C0F91F92CF93C0
:1039C00086E398E09F938F930E94440684E398E0F7
:1039D0000E94AB050E943E1AEC0180E298E00E9432
:1039E000AB05DF93CF938BE198E09F938F930E9479
:1039F000440689E198E00E94AB0580E098E00E94CF
:103A0000AB058C2F81701F928F938DEF97E09F9362
:103A10008F930E9444068DB79EB780960FB6F89498
:103A20009EBF0FBE8DBF8BEF97E00E94AB0584EE6B
:103A300097E00E94AB05C1FB882780F91F928F9306
:103A400081EE97E09F938F930E9444068FED97E05D
:103A50000E94AB058DEC97E00E94AB058D2F817025
:103A60001F928F938AEC97E09F938F930E94440656
:103A700088EC97E00E94AB0586EB97E00E94AB05CF
:103A8000D695D1701F92DF9383EB97E09F938F932E
:103A90000E94440681EB97E00E94AB058FE997E016
:103AA0000E94AB05C2FB882780F91F928F938CE997
:103AB00097E09F938F930E9444068AE997E00E94C3
:103AC000AB0588E897E00E94AB05C3FB882780F927
:103AD0001F928F9385E897E09F938F930E944406EF
:103AE00083E897E00E94AB0589E797E00E94AB0569
:103AF000C4FB882780F91F928F9386E797E09F93F6
:103B00008F930E94440684E797E00E94AB0582E60B
:103B100097E00E94AB05C5FB882780F91F928F9321
:103B20008FE597E09F938F930E9444068DE597E081
:103B30000E94AB0581E497E00E94AB05C6FB882795
:103B400080F91F928F938EE397E09F938F930E944B
:103B500044068DB79EB780960FB6F8949EBF0FBEF1
:103B60008DBF8CE397E00E94AB0584E397E00E9451
:103B7000AB05C7FBCC27C0F91F92CF9381E397E039
:103B80009F938F930E9444068FE297E00E94AB05BB
:103B90000F900F900F900F9081E07EC0803109F45C
:103BA000ADC080F48E3009F096CE9091DB01892F64
:103BB0008B7F92FF84608093DB0182FF9CC08BEC43
:103BC00098E090C0863109F4A9C0893109F083CE0C
:103BD00082E695E00E94AB058BEF94E00E94AB0576
:103BE0008DEB94E00E94AB0585E894E00E94AB0564
:103BF00088E594E00E94AB058CE294E02CC08A3208
:103C0000A1F1E8F4873269F128F48E3108F463CE2B
:103C10008D5128C0893209F05ECE0E94F1108EE0ED
:103C200099E00E94AB059FEF23ED80E39150204087
:103C30008040E1F700C000000E94FE1BADCF83343E
:103C400068F48A3308F0A1C0853359F0883309F04D
:103C500042CE8CE895E00E94AB059ECF833409F0FC
:103C60003ACE80E00E943A1C97CF8EE299E00E9403
:103C7000AB050E94C81A90CF8091DB01807F8093B2
:103C8000DB0181E795E00E94AB058AE299E00E94A2
:103C9000AB0581E08093DD01DF91CF910895909194
:103CA000DB01892F8E7F90FF81608093DB0180FF95
:103CB00003C082E099E0CFCF85EF98E00E94AB058A
:103CC0008091DB01817F8093DB0166CF9091DB01E6
:103CD000892F8D7F91FF82608093DB0181FF08C077
:103CE00088EE98E00E94AB058091DB018160EBCF0C
:103CF0008AED98E0B0CF8BEB98E0ADCF9091DB01EF
:103D0000892F877F93FF88608093DB0183FF03C047
:103D10008FEA98E0E7CF82EA98E09DCF8EE194E0C9
:103D20000E94AB050E94CB0D1F928F9384E094E01C
:103D30009F938F930E94440680910C011F928F9352
:103D40008DEE93E09F938F930E9444068091EA0149
:103D50001F928F938AED93E09F938F930E94440666
:103D60000E94A41B9F938F937F936F9383EC93E0A8
:103D70009F938F930E9444068DB79EB742960FB6CD
:103D8000F8949EBF0FBE8DBF07CF89536BCF80E0E5
:103D900008950C94C71ECF93C82F8091DD0188230E
:103DA00031F0813099F01092DD0180E00DC00E9469
:103DB00052198232D1F78C2F0E94C71E811119C06F
:103DC0008C2F0E94581C8170CF9108950E94521927
:103DD000823289F38C2F0E94C91E811119C0C4310F
:103DE000C9F050F4CB3061F088EB93E00E94AB0552
:103DF00013C081E090E0E7CFC93261F0C833A1F78A
:103E000081E795E00E94AB058AEB93E00E94AB0549
:103E100081E0D9CF1092DD0180E0D5CF8091E9011A
:103E2000089508959FB7F8941092E0019FBF909174
:103E3000F601943009F048C02091E9002F703091CC
:103E4000EC00932F917030FD90E8922B23E02093AB
:103E5000E9002091EB0020FF34C02091EE0027FF05
:103E600030C02091DE01222321F02091E80025FFBF
:103E700028C01092DE0126E03091E80035FF14C022
:103E80008093F1008091E80085FD27C08091E800D3
:103E900080FFFCCF8091E8008E778093E8009F70D0
:103EA0009093E90080E008953091F601343049F4B0
:103EB0003091EB0035FD05C0215041F481E0809345
:103EC000DE019F709093E9008FEF0895EFE9FFE026
:103ED0003197F1F700C00000CFCF8FB7F89421E001
:103EE0002093E0018FBFDBCF0F931F93CF93DF931E
:103EF00000D00F92CDB7DEB78C010E94E221823054
:103F000011F0843021F584E089831B830A8382E0E9
:103F10008093E9008FEF9091E800815095FD06C0F5
:103F200095ED9A95F1F700008111F5CF8091E800A9
:103F300085FF0DC050E040E063E070E0CE010196E7
:103F40000E94FF218091E8008E778093E8000F9017
:103F50000F900F90DF91CF911F910F910895CF9304
:103F6000DF9300D00F92CDB7DEB72091F601243059
:103F700031F523E02983805891099B838A8382E06D
:103F80008093E9008FEF9091E800815095FD06C085
:103F900095ED9A95F1F700008111F5CF8091E80039
:103FA00085FF0DC050E040E063E070E0CE01019677
:103FB0000E94FF218091E8008E778093E8000F90A7
:103FC0000F900F90DF91CF910895CF93DF93EC0185
:103FD0000E94E221823011F0843039F581E0809333
:103FE000E9008FEF9091E800815095FD06C095EDB6
:103FF0009A95F1F700008111F5CF8091E80085FFD7
:1040000014C050E040E068E070E0CE010E94FF2163
:104010008091E8008E778093E80088E0FE01A1EEB1
:10402000B1E001900D928A95E1F7DF91CF9108956B
:1040300087E699E00C94AB0583E699E00C94AB0518
:104040008FE599E00E94AB050C94601B2091DF0185
:104050002F5F822F62E30E946A26992319F0209332
:10406000DF0108951092DF018091E0018823F1F0D3
:104070008091F6018430C1F49091E9009F70209105
:10408000EC00822F817020FD80E8892B93E09093D3
:10409000E9009091EB0090FF04C09091EE0097FD35
:1040A00008C08F708093E9001092E001089510928B
:1040B000F1009091E80095FDFACF9091E80090FF13
:1040C000F0CF9091E8009E779093E800EACF42E02D
:1040D00061EC81E00E94072342E261EC82E00E94F1
:1040E000072342E261EC83E00C9407238091F801FE
:1040F000833009F45DC030F48130B1F1823009F4CD
:1041000099C008958A3009F485C08B3009F46BC0DA
:10411000893009F04CC08091F701813209F047C025
:104120008091FB019091FC01029708F040C08091C2
:10413000E800877F8093E8008091E80082FF33C029
:104140008091F200823029F48091F1008B7F8130E0
:1041500021F48091F1008093E9018091E8008B7750
:104160008093E8000C943B238091F701813AF9F4A5
:104170008091E800877F8093E8008091FB01909117
:10418000FC01892B61F468E081EE91E070E00E940F
:104190004E228091E8008B778093E800089560E0DC
:1041A00090E080E0F3CF8091F6018111C5CF0895B2
:1041B0008091F701813AD9F78091FB019091FC0140
:1041C000892BA9F78091E800877F8093E800809190
:1041D000E80080FFFCCF80910C018093F10080917A
:1041E000E8008E77BDCF8091F701813201F7809191
:1041F000FB019091FC01892BD1F68091E800877F2B
:104200008093E8000E943B238091F90180930C0188
:104210000C94F1108091F701813249F68091E80009
:10422000877F8093E8000E943B238091FA0180936E
:10423000EA0108958091F701813A09F0B8CF8091A1
:10424000E800877F8093E8008091E80080FFFCCF42
:104250008091EA01C2CF84B7877F84BF0FB6F894FC
:10426000A895809160008861809360001092600042
:104270000FBE80E880936100109261000E94560E8C
:104280000E948B230E94DE238091E2008460809351
:10429000E20082E19FE10E94011A78940E94352693
:1042A0000E945C0E82E091E00E94C60D8EE499E0CF
:1042B0000E94AB058091F601853019F00E948C0EAA
:1042C000F9CF8AE499E00E94AB050E94171B809108
:1042D000F401882379F30E94481B882359F30E9434
:1042E000E921E8CF0C947421292F3327233031059D
:1042F00021F168F42130310509F449C0223031053B
:1043000009F44AC090E080E030E020E029C021328A
:10431000310581F122323105A9F76330710590F73B
:10432000FB01EE0FFF1FED5DFE4F20813181605ECE
:104330007E4FFB01808190E013C099278130910569
:1043400099F0009741F08230910589F00397D1F6FA
:10435000EBE6F9E002C0E3EAF9E0849190E09F0126
:10436000FA01318320830895EBE8F9E0F6CFE1E725
:10437000F9E0F3CF6330710528F6660F771FFB0174
:10438000E75DFE4F2081318189E090E0E9CF82E155
:1043900090E022E03AE0E4CF8BE590E027EA39E0D4
:1043A000DFCF0895CF93C82F0E94D121C093EB0196
:1043B000CF9108958091F601843011F482E0089540
:1043C00081E008958091EB01811102C00C94DA2103
:1043D000089584E089BD86E089BD09B400FEFDCF63
:1043E0008091D8008F7D8093D8008091E00082601A
:1043F0008093E0008091E00081FDFCCF0895AF92B2
:10440000BF92CF92DF92FF920F931F93CF93DF93D0
:104410006C01EB018A010E945A23F82E811123C0FE
:104420000115110539F0F80180819181C81BD90B64
:10443000C80ED91EB12CA12C2097A9F08091E800BC
:1044400085FD22C08091E8008E778093E8000115F9
:104450001105A1F0F80180819181A80EB91EB182E9
:10446000A08285E0F82E8F2DDF91CF911F910F91C3
:10447000FF90DF90CF90BF90AF9008950E945A2395
:104480008823D1F2F82EEFCFF60181916F0180934E
:10449000F1002197FFEFAF1ABF0ACECFFC01809148
:1044A000FD019091FE0186179707A0F06115710537
:1044B00029F49091E8009E779093E80090E06115D0
:1044C000710551F4911108C08091E80082FF32C05B
:1044D00080E00895BC01F2CF8091F6018823B1F10C
:1044E0008530B1F18091E80083FD2EC08091E80015
:1044F00082FDEACF8091E80080FFE1CF2091F200B9
:1045000030E06115710519F02830310558F091E05F
:104510002830310509F090E02091E8002E772093B3
:10452000E800CDCF81918093F100615071092F5F38
:104530003F4FE7CF8091F601882341F0853041F06D
:104540008091E80083FFC0CF81E0089582E0089564
:1045500083E00895FC018091FD019091FE01861792
:104560009707A0F06115710529F48091E8008E7716
:104570008093E80090E06115710551F4911108C035
:104580008091E80082FF33C080E00895BC01F2CF43
:104590008091F6018823B9F18530B9F18091E80066
:1045A00083FD2FC08091E80082FDEACF8091E80072
:1045B00080FFE1CF2091F20030E06115710519F024
:1045C0002830310558F091E02830310509F090E0AD
:1045D0008091E8008E778093E800CDCF849180931E
:1045E000F1003196615071092F5F3F4FE6CF809106
:1045F000F601882341F0853041F08091E80083FF87
:10460000BFCF81E0089582E0089583E00895982F58
:10461000953028F08F708093E90081E008959093A1
:10462000E900242F762F50E0981731F07091EC00BC
:104630002091ED005091F00021FD02C09F5FE8CF76
:104640003091EB003E7F3093EB003091ED003D7FE9
:104650003093ED003091EB0031603093EB007093BC
:10466000EC002093ED005093F0002091EE0027FD28
:10467000E5CF80E008958091F70187FF13C0809116
:10468000E80082FF06C08091E8008B778093E80005
:1046900004C08091F6018111F2CF08958091F60156
:1046A0008823D9F38091E80080FFF8CF8091E8005B
:1046B0008E77ECCF2091E4003091E50095E6A901DA
:1046C0002091EC00822F817020FF06C08091E800CD
:1046D00080FF06C080E008952091E80022FD1AC006
:1046E0008091F601882389F0853089F08091EB0074
:1046F00085FD0FC02091E4003091E500421753077B
:10470000F9F29150E1F684E0089582E0089583E0A3
:10471000089581E008950E94E8230E94EB23E0EED3
:10472000F0E0808181608083E8EDF0E080818F7728
:10473000808319BCE3E6F0E0808181608083109281
:10474000F50108950E94E8230E94EB238091D80090
:104750008F778093D8008091D80080688093D800AC
:104760008091D8008F7D8093D80084E089BD86E059
:1047700089BD09B400FEFDCF1092F6011092F2013E
:104780001092F4011092F30142E060E080E00E9498
:1047900007238091E1008E7F8093E1008091E20009
:1047A00081608093E2008091E20088608093E20063
:1047B0008091E0008E7F8093E0000895E3E6F0E0D2
:1047C00080818E7F808381E08093F5010C94A22309
:1047D0001092E20008951092E10008951F920F9246
:1047E0000FB60F9211242F933F934F935F936F93C4
:1047F0007F938F939F93AF93BF93EF93FF9380919A
:10480000E10082FF0BC08091E20082FF07C080912F
:10481000E1008B7F8093E1000E9426208091E100DF
:1048200080FF19C08091E20080FF15C08091E200F6
:104830008E7F8093E2008091E20080618093E200AD
:104840008091D80080628093D80019BC85E0809365
:10485000F6010E941C208091E10084FF2BC0809112
:10486000E20084FF27C084E089BD86E089BD89B568
:10487000982F917080FFFBCF8091D8008F7D80931F
:10488000D8008091E1008F7E8093E1008091E2006A
:104890008F7E8093E2008091E20081608093E2004D
:1048A0008091F201882309F443C084E08093F601EB
:1048B0000E9420208091E10083FF29C08091E200C6
:1048C00083FF25C08091E100877F8093E10082E033
:1048D0008093F6011092F2018091E1008E7F809327
:1048E000E1008091E2008E7F8093E2008091E200FF
:1048F00080618093E20042E060E080E00E94072354
:104900008091F00088608093F0000E941820FF9151
:10491000EF91BF91AF919F918F917F916F915F9137
:104920004F913F912F910F900FBE0F901F901895B0
:104930008091E30087FD93E09093F601B9CF1F9239
:104940000F920FB60F9211242F933F934F935F93C3
:104950006F937F938F939F93AF93BF93CF93DF9387
:10496000EF93FF93D091E900DF708091EC00C82FA6
:10497000C17080FDC0E81092E9008091F000877F4F
:104980008093F00078940E94E3241092E9008091D3
:10499000F00088608093F000CD2BCF70C093E900C9
:1049A000FF91EF91DF91CF91BF91AF919F918F9147
:1049B0007F916F915F914F913F912F910F900FBE1B
:1049C0000F901F9018951F93CF93DF93CDB7DEB74D
:1049D000AA970FB6F894DEBF0FBECDBF87EF91E068
:1049E0002091F100FC012193CF01F1E08F3F9F075F
:1049F000B9F70E9476208091E80083FF1EC1809164
:104A0000F7019091F8019A3008F017C1E92FF0E012
:104A1000E252F94D0C947626803899F0823809F0EC
:104A20000CC18091FB018F70853008F006C1809326
:104A3000E9008091EB0085FB882780F91092E9005E
:104A400006C08091F3019091F401911182609091E0
:104A5000E800977F9093E8008093F1001092F100B6
:104A60008091E8008E77E5C0882309F4D3C08230B6
:104A700009F0E3C08091F9018111D6C08091FB015A
:104A80008F702FEF280F243008F0D7C08093E900F3
:104A90002091EB0020FFC8C0933031F48091EB00EF
:104AA00080628093EB00C0C09091EB009061909386
:104AB000EB0021E030E001C0220F8A95EAF7209355
:104AC000EA001092EA008091EB008860EACF811141
:104AD000B4C01091F9011F778091E3008078812B99
:104AE0008093E3008091E800877F8093E8000E9434
:104AF0003B238091E80080FFFCCF8091E300806839
:104B00008093E30082E0111183E08093F60195C069
:104B10008058823008F091C08091F9019091FA019B
:104B20008C3D23E09207A1F583E08A838AE28983A2
:104B30004FB7F894DE01139620E03EE051E2E32FF8
:104B4000F0E050935700E49120FF03C0E295EF702E
:104B50003F5FEF708E2F90E0EA30C0F0C7968D93E4
:104B60009D932F5F243159F74FBF8091E800877FD5
:104B70008093E8006AE270E0CE0101960E944E2226
:104B80008091E8008B778093E80057C0C096E7CF0C
:104B90006091FB017091FC01AE014F5F5F4F0E947D
:104BA0007221BC01892B09F448C09091E800977FDD
:104BB0009093E80089819A810E94AA22E1CF8038EF
:104BC000E1F58091E800877F8093E8008091F20111
:104BD0008093F10045CF811130C09091F90192305E
:104BE00060F58091E800877F8093E8009093F20160
:104BF0000E943B238091F201882311F084E005C0DC
:104C00008091E30087FDFACF81E08093F6010E9456
:104C1000672013C08091F901813079F481E09330ED
:104C200009F080E08093F4011092E9008091E8009F
:104C3000877F8093E8000E943B238091E80083FFF8
:104C40000AC08091E800877F8093E8008091EB00A4
:104C500080628093EB00AA960FB6F894DEBF0FBE79
:104C6000CDBFDF91CF911F910895CF938091F60131
:104C70008823A1F0C091E900CF709091EC00892FBA
:104C8000817090FD80E8C82B1092E9008091E800C7
:104C900083FD0E94E324CF70C093E900CF91089573
:104CA000002480FD060E660F11F08695D1F7802D49
:104CB00008950024552704C0080E591F880F991F16
:104CC000009729F076956795B8F37105B9F7802DAF
:104CD000952F0895991B79E004C0991F961708F045
:104CE000961B881F7A95C9F780950895EE0FFF1FD0
:104CF0000590F491E02D0994F999FECF92BD81BD04
:104D0000F89A992780B50895A8E1B0E042E050E014
:104D10000C94B026262FF999FECF92BD81BDF89A4A
:104D2000019700B4021639F01FBA20BD0FB6F894EF
:104D3000FA9AF99A0FBE08950396272F0E948B26A0
:104D40000E948A26252F0E948B26242F0C948B26C6
:104D50000196272F0E948B260C948A26DC01CB011A
:104D6000FC01F999FECF06C0F2BDE1BDF89A31967B
:104D700000B40D9241505040B8F70895F894FFCF19
:104D800000110011091109110B1109110911091163
:104D90000011001110110911091110114E114E11BD
:104DA000B511B51108127E117E117E112212B212B8
:104DB000C212C21220137E117E1129130C25342534
:104DC0001D2634251D26672588251D26DF25EB2574
:104DD000D0010E1FE51F111FAF1F741F016737366B
:104DE0003534333130969594909164656632939260
:104DF0004036226C0A360A140AB909D209EB0900B6
:00000001FF
